{
  "contractName": "TodoList",
  "abi": [
    {
      "inputs": [],
      "payable": false,
      "stateMutability": "nonpayable",
      "type": "constructor"
    },
    {
      "anonymous": false,
      "inputs": [
        {
          "indexed": false,
          "internalType": "string",
          "name": "task",
          "type": "string"
        },
        {
          "indexed": false,
          "internalType": "uint256",
          "name": "taskNumber",
          "type": "uint256"
        }
      ],
      "name": "TaskCreated",
      "type": "event"
    },
    {
      "constant": true,
      "inputs": [],
      "name": "taskCount",
      "outputs": [
        {
          "internalType": "uint256",
          "name": "",
          "type": "uint256"
        }
      ],
      "payable": false,
      "stateMutability": "view",
      "type": "function"
    },
    {
      "constant": true,
      "inputs": [
        {
          "internalType": "uint256",
          "name": "",
          "type": "uint256"
        }
      ],
      "name": "todos",
      "outputs": [
        {
          "internalType": "string",
          "name": "taskName",
          "type": "string"
        },
        {
          "internalType": "bool",
          "name": "isCompleted",
          "type": "bool"
        }
      ],
      "payable": false,
      "stateMutability": "view",
      "type": "function"
    },
    {
      "constant": false,
      "inputs": [
        {
          "internalType": "string",
          "name": "_taskName",
          "type": "string"
        }
      ],
      "name": "createTask",
      "outputs": [],
      "payable": false,
      "stateMutability": "nonpayable",
      "type": "function"
    }
  ],
  "bytecode": "0x608060405234801561001057600080fd5b5060405180604001604052806040518060400160405280600481526020017f746573740000000000000000000000000000000000000000000000000000000081525081526020016001151581525060016000808152602001908152602001600020600082015181600001908051906020019061008d9291906100be565b5060208201518160010160006101000a81548160ff0219169083151502179055509050506001600081905550610163565b828054600181600116156101000203166002900490600052602060002090601f016020900481019282601f106100ff57805160ff191683800117855561012d565b8280016001018555821561012d579182015b8281111561012c578251825591602001919060010190610111565b5b50905061013a919061013e565b5090565b61016091905b8082111561015c576000816000905550600101610144565b5090565b90565b6104a0806101726000396000f3fe608060405234801561001057600080fd5b50600436106100415760003560e01c8063111002aa14610046578063b6cb58a514610101578063bc8bc2b41461011f575b600080fd5b6100ff6004803603602081101561005c57600080fd5b810190808035906020019064010000000081111561007957600080fd5b82018360208201111561008b57600080fd5b803590602001918460018302840111640100000000831117156100ad57600080fd5b91908080601f016020809104026020016040519081016040528093929190818152602001838380828437600081840152601f19601f8201169050808301925050505050505091929192905050506101d1565b005b6101096102f7565b6040518082815260200191505060405180910390f35b61014b6004803603602081101561013557600080fd5b81019080803590602001909291905050506102fd565b604051808060200183151515158152602001828103825284818151815260200191508051906020019080838360005b8381101561019557808201518184015260208101905061017a565b50505050905090810190601f1680156101c25780820380516001836020036101000a031916815260200191505b50935050505060405180910390f35b6040518060400160405280828152602001600015158152506001600080600081548092919060010191905055815260200190815260200160002060008201518160000190805190602001906102279291906103c6565b5060208201518160010160006101000a81548160ff0219169083151502179055509050507fed1d390c812a65783a09786b88b832ef75bb16882fbc56eeea9bf61a4c1a8ac7816001600054036040518080602001838152602001828103825284818151815260200191508051906020019080838360005b838110156102b957808201518184015260208101905061029e565b50505050905090810190601f1680156102e65780820380516001836020036101000a031916815260200191505b50935050505060405180910390a150565b60005481565b6001602052806000526040600020600091509050806000018054600181600116156101000203166002900480601f0160208091040260200160405190810160405280929190818152602001828054600181600116156101000203166002900480156103a95780601f1061037e576101008083540402835291602001916103a9565b820191906000526020600020905b81548152906001019060200180831161038c57829003601f168201915b5050505050908060010160009054906101000a900460ff16905082565b828054600181600116156101000203166002900490600052602060002090601f016020900481019282601f1061040757805160ff1916838001178555610435565b82800160010185558215610435579182015b82811115610434578251825591602001919060010190610419565b5b5090506104429190610446565b5090565b61046891905b8082111561046457600081600090555060010161044c565b5090565b9056fea265627a7a72315820bcb1e166dd8f36dde9725617a285a99ade9cef887d599fd6151e498ac86dc7d164736f6c63430005100032",
  "source": "pragma solidity ^0.5.0;\n\ncontract TodoList {\n    uint256 public taskCount;\n\n    struct Task {\n        string taskName;\n        bool isCompleted;\n    }\n\n    mapping(uint256 => Task) public todos;\n\n    event TaskCreated(string task, uint256 taskNumber);\n\n    constructor() public {\n        todos[0] = Task(\"test\", true);\n        taskCount = 1;\n    }\n\n    function createTask(string memory _taskName) public {\n        todos[taskCount++] = Task(_taskName, false);\n\n        emit TaskCreated(_taskName, taskCount - 1);\n    }\n}\n",
  "sourcePath": "/Users/apple/Documents/Notes-app-etherium/contracts/TodoList.sol",
  "compiler": {
    "name": "solc",
    "version": "0.5.16+commit.9c3226ce.Emscripten.clang"
  },
  "schemaVersion": "3.4.5",
  "updatedAt": "2022-03-05T15:03:37.819Z",
  "networkType": "ethereum",
  "devdoc": {
    "methods": {}
  },
  "userdoc": {
    "methods": {}
  }
}